{
  "contractName": "Aiakos",
  "abi": [
    {
      "constant": false,
      "inputs": [],
      "name": "renounceOwnership",
      "outputs": [],
      "payable": false,
      "stateMutability": "nonpayable",
      "type": "function"
    },
    {
      "constant": true,
      "inputs": [],
      "name": "owner",
      "outputs": [
        {
          "name": "",
          "type": "address"
        }
      ],
      "payable": false,
      "stateMutability": "view",
      "type": "function"
    },
    {
      "constant": true,
      "inputs": [],
      "name": "isOwner",
      "outputs": [
        {
          "name": "",
          "type": "bool"
        }
      ],
      "payable": false,
      "stateMutability": "view",
      "type": "function"
    },
    {
      "inputs": [
        {
          "name": "_requiredNumberOfMaintainers",
          "type": "uint256"
        }
      ],
      "payable": false,
      "stateMutability": "nonpayable",
      "type": "constructor"
    },
    {
      "anonymous": false,
      "inputs": [
        {
          "indexed": true,
          "name": "maintainer",
          "type": "address"
        }
      ],
      "name": "MaintainerAdded",
      "type": "event"
    },
    {
      "anonymous": false,
      "inputs": [
        {
          "indexed": false,
          "name": "maintainer",
          "type": "address"
        },
        {
          "indexed": false,
          "name": "version",
          "type": "string"
        }
      ],
      "name": "ApprovalGranted",
      "type": "event"
    },
    {
      "anonymous": false,
      "inputs": [
        {
          "indexed": false,
          "name": "version",
          "type": "string"
        }
      ],
      "name": "ReleaseApproved",
      "type": "event"
    },
    {
      "anonymous": false,
      "inputs": [
        {
          "indexed": true,
          "name": "previousOwner",
          "type": "address"
        },
        {
          "indexed": true,
          "name": "newOwner",
          "type": "address"
        }
      ],
      "name": "OwnershipTransferred",
      "type": "event"
    },
    {
      "constant": false,
      "inputs": [
        {
          "name": "_maintainerAddress",
          "type": "address"
        }
      ],
      "name": "addMaintainer",
      "outputs": [],
      "payable": true,
      "stateMutability": "payable",
      "type": "function"
    },
    {
      "constant": false,
      "inputs": [
        {
          "name": "_version",
          "type": "string"
        },
        {
          "name": "_sha256Hash",
          "type": "bytes32"
        }
      ],
      "name": "deployRelease",
      "outputs": [],
      "payable": true,
      "stateMutability": "payable",
      "type": "function"
    },
    {
      "constant": true,
      "inputs": [
        {
          "name": "_version",
          "type": "string"
        },
        {
          "name": "_sha256Hash",
          "type": "bytes32"
        }
      ],
      "name": "checkRelease",
      "outputs": [
        {
          "name": "",
          "type": "bool"
        }
      ],
      "payable": false,
      "stateMutability": "view",
      "type": "function"
    },
    {
      "constant": true,
      "inputs": [
        {
          "name": "_version",
          "type": "string"
        }
      ],
      "name": "getReleaseInfo",
      "outputs": [
        {
          "name": "",
          "type": "string"
        },
        {
          "name": "",
          "type": "bytes32"
        },
        {
          "name": "",
          "type": "bool"
        },
        {
          "name": "",
          "type": "bool"
        }
      ],
      "payable": false,
      "stateMutability": "view",
      "type": "function"
    },
    {
      "constant": true,
      "inputs": [],
      "name": "amIMaintainer",
      "outputs": [
        {
          "name": "",
          "type": "bool"
        }
      ],
      "payable": false,
      "stateMutability": "view",
      "type": "function"
    },
    {
      "constant": true,
      "inputs": [
        {
          "name": "_maintainerAddress",
          "type": "address"
        }
      ],
      "name": "isMaintainer",
      "outputs": [
        {
          "name": "",
          "type": "bool"
        }
      ],
      "payable": false,
      "stateMutability": "view",
      "type": "function"
    },
    {
      "constant": true,
      "inputs": [],
      "name": "getRequiredNumberOfMaintainers",
      "outputs": [
        {
          "name": "",
          "type": "uint256"
        }
      ],
      "payable": false,
      "stateMutability": "view",
      "type": "function"
    },
    {
      "constant": false,
      "inputs": [
        {
          "name": "_newOwner",
          "type": "address"
        }
      ],
      "name": "transferOwnership",
      "outputs": [],
      "payable": false,
      "stateMutability": "nonpayable",
      "type": "function"
    }
  ],
  "bytecode": "0x608060405234801561001057600080fd5b50604051602080611b5f8339810180604052602081101561003057600080fd5b8101908080519060200190929190505050336000806101000a81548173ffffffffffffffffffffffffffffffffffffffff021916908373ffffffffffffffffffffffffffffffffffffffff1602179055506000809054906101000a900473ffffffffffffffffffffffffffffffffffffffff1673ffffffffffffffffffffffffffffffffffffffff16600073ffffffffffffffffffffffffffffffffffffffff167f8be0079c531659141344cd1fd0a4f28419497f9722a3daafe3b4186f6b6457e060405160405180910390a36101103361012a60201b6114eb1760201c565b6000811161011d57600080fd5b806002819055505061026e565b600073ffffffffffffffffffffffffffffffffffffffff168173ffffffffffffffffffffffffffffffffffffffff1614156101b0576040517f08c379a0000000000000000000000000000000000000000000000000000000008152600401808060200182810382526026815260200180611b396026913960400191505060405180910390fd5b8073ffffffffffffffffffffffffffffffffffffffff166000809054906101000a900473ffffffffffffffffffffffffffffffffffffffff1673ffffffffffffffffffffffffffffffffffffffff167f8be0079c531659141344cd1fd0a4f28419497f9722a3daafe3b4186f6b6457e060405160405180910390a3806000806101000a81548173ffffffffffffffffffffffffffffffffffffffff021916908373ffffffffffffffffffffffffffffffffffffffff16021790555050565b6118bc8061027d6000396000f3fe60806040526004361061009c5760003560e01c80638da5cb5b116100645780638da5cb5b146102b45780638f32d59b1461030b578063bf1a8fe91461033a578063dd57366a14610424578063e6a15a481461048d578063f2fde38b146105525761009c565b8063441e88d5146100a15780636b453c1f146101ff578063715018a61461024357806374d748111461025a57806379f0e67c14610285575b600080fd5b3480156100ad57600080fd5b50610167600480360360208110156100c457600080fd5b81019080803590602001906401000000008111156100e157600080fd5b8201836020820111156100f357600080fd5b8035906020019184600183028401116401000000008311171561011557600080fd5b91908080601f016020809104026020016040519081016040528093929190818152602001838380828437600081840152601f19601f8201169050808301925050505050505091929192905050506105a3565b60405180806020018581526020018415151515815260200183151515158152602001828103825286818151815260200191508051906020019080838360005b838110156101c15780820151818401526020810190506101a6565b50505050905090810190601f1680156101ee5780820380516001836020036101000a031916815260200191505b509550505050505060405180910390f35b6102416004803603602081101561021557600080fd5b81019080803573ffffffffffffffffffffffffffffffffffffffff16906020019092919050505061075e565b005b34801561024f57600080fd5b5061025861086e565b005b34801561026657600080fd5b5061026f6109a7565b6040518082815260200191505060405180910390f35b34801561029157600080fd5b5061029a6109b1565b604051808215151515815260200191505060405180910390f35b3480156102c057600080fd5b506102c96109cc565b604051808273ffffffffffffffffffffffffffffffffffffffff1673ffffffffffffffffffffffffffffffffffffffff16815260200191505060405180910390f35b34801561031757600080fd5b506103206109f5565b604051808215151515815260200191505060405180910390f35b34801561034657600080fd5b5061040a6004803603604081101561035d57600080fd5b810190808035906020019064010000000081111561037a57600080fd5b82018360208201111561038c57600080fd5b803590602001918460018302840111640100000000831117156103ae57600080fd5b91908080601f016020809104026020016040519081016040528093929190818152602001838380828437600081840152601f19601f82011690508083019250505050505050919291929080359060200190929190505050610a4c565b604051808215151515815260200191505060405180910390f35b34801561043057600080fd5b506104736004803603602081101561044757600080fd5b81019080803573ffffffffffffffffffffffffffffffffffffffff169060200190929190505050610c03565b604051808215151515815260200191505060405180910390f35b610550600480360360408110156104a357600080fd5b81019080803590602001906401000000008111156104c057600080fd5b8201836020820111156104d257600080fd5b803590602001918460018302840111640100000000831117156104f457600080fd5b91908080601f016020809104026020016040519081016040528093929190818152602001838380828437600081840152601f19601f82011690508083019250505050505050919291929080359060200190929190505050610c20565b005b34801561055e57600080fd5b506105a16004803603602081101561057557600080fd5b81019080803573ffffffffffffffffffffffffffffffffffffffff169060200190929190505050610f61565b005b60606000806000806003866040518082805190602001908083835b602083106105e157805182526020820191506020810190506020830392506105be565b6001836020036101000a03801982511681845116808217855250505050505090500191505090815260200160405180910390209050600015158160040160009054906101000a900460ff1615151415610685576040517f08c379a000000000000000000000000000000000000000000000000000000000815260040180806020018281038252602e8152602001806117ef602e913960400191505060405180910390fd5b8060000181600101548260040160009054906101000a900460ff168360040160019054906101000a900460ff16838054600181600116156101000203166002900480601f0160208091040260200160405190810160405280929190818152602001828054600181600116156101000203166002900480156107475780601f1061071c57610100808354040283529160200191610747565b820191906000526020600020905b81548152906001019060200180831161072a57829003601f168201915b505050505093509450945094509450509193509193565b6107666109f5565b6107d8576040517f08c379a00000000000000000000000000000000000000000000000000000000081526004018080602001828103825260208152602001807f4f776e61626c653a2063616c6c6572206973206e6f7420746865206f776e657281525060200191505060405180910390fd5b80600073ffffffffffffffffffffffffffffffffffffffff168173ffffffffffffffffffffffffffffffffffffffff16141561081357600080fd5b61082782600161102390919063ffffffff16565b8173ffffffffffffffffffffffffffffffffffffffff167f1390a149489c82e9e2e89927bdb17ad1ea3f0cc314fce06c96369721d3afb8f060405160405180910390a25050565b6108766109f5565b6108e8576040517f08c379a00000000000000000000000000000000000000000000000000000000081526004018080602001828103825260208152602001807f4f776e61626c653a2063616c6c6572206973206e6f7420746865206f776e657281525060200191505060405180910390fd5b600073ffffffffffffffffffffffffffffffffffffffff166000809054906101000a900473ffffffffffffffffffffffffffffffffffffffff1673ffffffffffffffffffffffffffffffffffffffff167f8be0079c531659141344cd1fd0a4f28419497f9722a3daafe3b4186f6b6457e060405160405180910390a360008060006101000a81548173ffffffffffffffffffffffffffffffffffffffff021916908373ffffffffffffffffffffffffffffffffffffffff160217905550565b6000600254905090565b60006109c73360016110fe90919063ffffffff16565b905090565b60008060009054906101000a900473ffffffffffffffffffffffffffffffffffffffff16905090565b60008060009054906101000a900473ffffffffffffffffffffffffffffffffffffffff1673ffffffffffffffffffffffffffffffffffffffff163373ffffffffffffffffffffffffffffffffffffffff1614905090565b60008060001b821415610aaa576040517f08c379a00000000000000000000000000000000000000000000000000000000081526004018080602001828103825260288152602001806118696028913960400191505060405180910390fd5b60006003846040518082805190602001908083835b60208310610ae25780518252602082019150602081019050602083039250610abf565b6001836020036101000a038019825116818451168082178552505050505050905001915050908152602001604051809103902090508060040160009054906101000a900460ff16610b7e576040517f08c379a000000000000000000000000000000000000000000000000000000000815260040180806020018281038252602c815260200180611794602c913960400191505060405180910390fd5b8060040160019054906101000a900460ff16610be5576040517f08c379a000000000000000000000000000000000000000000000000000000000815260040180806020018281038252602a81526020018061183f602a913960400191505060405180910390fd5b610bf883826111dc90919063ffffffff16565b600191505092915050565b6000610c198260016110fe90919063ffffffff16565b9050919050565b610c343360016110fe90919063ffffffff16565b610c89576040517f08c379a00000000000000000000000000000000000000000000000000000000081526004018080602001828103825260238152602001806117716023913960400191505060405180910390fd5b60006003836040518082805190602001908083835b60208310610cc15780518252602082019150602081019050602083039250610c9e565b6001836020036101000a038019825116818451168082178552505050505050905001915050908152602001604051809103902090508060040160019054906101000a900460ff1615610d5e576040517f08c379a000000000000000000000000000000000000000000000000000000000815260040180806020018281038252602f8152602001806117c0602f913960400191505060405180910390fd5b8060040160009054906101000a900460ff16610d8e57610d8983838361123c9092919063ffffffff16565b610da2565b610da182826111dc90919063ffffffff16565b5b600080610dbc33600254856112809092919063ffffffff16565b915091508115610e97577f6b7afa59a11183364ee985a968c13fe627a79c882690d6fe5bc81e9c51e11c103386604051808373ffffffffffffffffffffffffffffffffffffffff1673ffffffffffffffffffffffffffffffffffffffff16815260200180602001828103825283818151815260200191508051906020019080838360005b83811015610e5b578082015181840152602081019050610e40565b50505050905090810190601f168015610e885780820380516001836020036101000a031916815260200191505b50935050505060405180910390a15b8015610f5a577f714e14f599e825214360f88d70c3c4af5cd2931ebff7fdbcaae84a13348f236a836000016040518080602001828103825283818154600181600116156101000203166002900481526020019150805460018160011615610100020316600290048015610f4b5780601f10610f2057610100808354040283529160200191610f4b565b820191906000526020600020905b815481529060010190602001808311610f2e57829003601f168201915b50509250505060405180910390a15b5050505050565b80600073ffffffffffffffffffffffffffffffffffffffff168173ffffffffffffffffffffffffffffffffffffffff161415610f9c57600080fd5b610fa46109f5565b611016576040517f08c379a00000000000000000000000000000000000000000000000000000000081526004018080602001828103825260208152602001807f4f776e61626c653a2063616c6c6572206973206e6f7420746865206f776e657281525060200191505060405180910390fd5b61101f82611465565b5050565b61102d82826110fe565b156110a0576040517f08c379a000000000000000000000000000000000000000000000000000000000815260040180806020018281038252601f8152602001807f526f6c65733a206163636f756e7420616c72656164792068617320726f6c650081525060200191505060405180910390fd5b60018260000160008373ffffffffffffffffffffffffffffffffffffffff1673ffffffffffffffffffffffffffffffffffffffff16815260200190815260200160002060006101000a81548160ff0219169083151502179055505050565b60008073ffffffffffffffffffffffffffffffffffffffff168273ffffffffffffffffffffffffffffffffffffffff161415611185576040517f08c379a000000000000000000000000000000000000000000000000000000000815260040180806020018281038252602281526020018061181d6022913960400191505060405180910390fd5b8260000160008373ffffffffffffffffffffffffffffffffffffffff1673ffffffffffffffffffffffffffffffffffffffff16815260200190815260200160002060009054906101000a900460ff16905092915050565b80826001015414611238576040517f08c379a00000000000000000000000000000000000000000000000000000000081526004018080602001828103825260308152602001806116d56030913960400191505060405180910390fd5b5050565b60018360040160006101000a81548160ff0219169083151502179055508183600001908051906020019061127192919061162f565b50808360010181905550505050565b60008084600115158160040160019054906101000a900460ff1615151415611310576040517f08c379a00000000000000000000000000000000000000000000000000000000081526004018080602001828103825260198152602001807f52656c6561736520616c726561647920617070726f7665642e0000000000000081525060200191505060405180910390fd5b600115158660020160008773ffffffffffffffffffffffffffffffffffffffff1673ffffffffffffffffffffffffffffffffffffffff16815260200190815260200160002060009054906101000a900460ff16151514156113bc576040517f08c379a000000000000000000000000000000000000000000000000000000000815260040180806020018281038252604681526020018061172b6046913960600191505060405180910390fd5b60018660020160008773ffffffffffffffffffffffffffffffffffffffff1673ffffffffffffffffffffffffffffffffffffffff16815260200190815260200160002060006101000a81548160ff021916908315150217905550600192508560030160008154809291906001019190505550838660030154141561145c5760018660040160016101000a81548160ff021916908315150217905550600191505b50935093915050565b61146d6109f5565b6114df576040517f08c379a00000000000000000000000000000000000000000000000000000000081526004018080602001828103825260208152602001807f4f776e61626c653a2063616c6c6572206973206e6f7420746865206f776e657281525060200191505060405180910390fd5b6114e8816114eb565b50565b600073ffffffffffffffffffffffffffffffffffffffff168173ffffffffffffffffffffffffffffffffffffffff161415611571576040517f08c379a00000000000000000000000000000000000000000000000000000000081526004018080602001828103825260268152602001806117056026913960400191505060405180910390fd5b8073ffffffffffffffffffffffffffffffffffffffff166000809054906101000a900473ffffffffffffffffffffffffffffffffffffffff1673ffffffffffffffffffffffffffffffffffffffff167f8be0079c531659141344cd1fd0a4f28419497f9722a3daafe3b4186f6b6457e060405160405180910390a3806000806101000a81548173ffffffffffffffffffffffffffffffffffffffff021916908373ffffffffffffffffffffffffffffffffffffffff16021790555050565b828054600181600116156101000203166002900490600052602060002090601f016020900481019282601f1061167057805160ff191683800117855561169e565b8280016001018555821561169e579182015b8281111561169d578251825591602001919060010190611682565b5b5090506116ab91906116af565b5090565b6116d191905b808211156116cd5760008160009055506001016116b5565b5090565b9056fe4169616b6f732e52656c65617365732e636865636b3a204d6973746d617463682072656c65617365206861736865732e4f776e61626c653a206e6577206f776e657220697320746865207a65726f20616464726573734169616b6f732e52656c65617365732e616464417070726f76616c3a204d61696e7461696e657220616c726561647920617070726f76656420746869732072656c656173652e4169616b6f733a2063616c6c6572206973206e6f742061206d61696e7461696e65722e4169616b6f732e636865636b52656c656173653a2052656c6561736520646f6573206e6f742065786973742e4169616b6f732e6465706c6f7952656c656173653a2052656c6561736520616c726561647920617070726f7665642e4169616b6f732e67657452656c65617365496e666f3a2052656c6561736520646f6573206e6f742065786973742e526f6c65733a206163636f756e7420697320746865207a65726f20616464726573734169616b6f732e636865636b52656c656173653a2052656c65617365206e6f7420617070726f7665642e4169616b6f732e636865636b52656c656173653a20496e76616c696420696e70757420686173682ea165627a7a723058207039b32538775c910fd5f482e4b2975a220263b541ddff79a7e82754d2abcea300294f776e61626c653a206e6577206f776e657220697320746865207a65726f2061646472657373",
  "source": "pragma solidity ^0.5.0;\n\nimport \"openzeppelin-solidity/contracts/access/Roles.sol\";\nimport \"openzeppelin-solidity/contracts/ownership/Ownable.sol\";\nimport \"./Releases.sol\";\n\n/**\n * @title Aiakos\n * @dev Decentralized Release Management System\n */\ncontract Aiakos is Ownable  {\n\n  using Roles for Roles.Role;\n  using Releases for Releases.Release;\n\n  // Whitelist of maintainers allowed to give approval for a release version.\n  Roles.Role private maintainers;\n\n  // Minimum number of maintainers before approving a release and consider it as valid.\n  uint private requiredNumberOfMaintainers;\n  // Record of all releases.\n  mapping(string => Releases.Release) releases;\n  // Triggered when a new maintainer is added to the whitelist.\n  event MaintainerAdded(address indexed maintainer);\n  // Triggered when a maintainer grants approval.\n  event ApprovalGranted(address maintainer, string version);\n  // Triggered when a new release has been approved.\n  event ReleaseApproved(string version);\n\n\n  /**\n  * @dev Deploys a new Aiakos contract.\n  * @param _requiredNumberOfMaintainers The required number of maintainers to deploy a release.\n  */\n  constructor (uint _requiredNumberOfMaintainers) public{\n      Ownable._transferOwnership(msg.sender);\n      require(_requiredNumberOfMaintainers > 0);\n      requiredNumberOfMaintainers = _requiredNumberOfMaintainers;\n  }\n\n  /**\n  * @dev Adds a maintainer to the whitelist.\n  * @dev Only owner of the contract can call this function.\n  * @param _maintainerAddress The address of the maintainer account to add.\n  */\n  function addMaintainer(address _maintainerAddress)\n   public\n   onlyOwner\n   payable\n   nonEmptyAddress(_maintainerAddress)\n  {\n      maintainers.add(_maintainerAddress);\n      emit MaintainerAdded(_maintainerAddress);\n  }\n\n  /**\n  * @dev Deploys a release. A maintainer add its approval for a specific version of the release.\n  * @dev If maintainer is the last to approve, the release is approved definitely and a ReleaseApproved event is emitted.\n  * @dev Only whitelisted maintainers can call this function.\n  * @param _version The version code of the release.\n  * @param _sha256Hash The integrity hash(SHA256) of the release.\n  */\n  function deployRelease(string memory _version, bytes32 _sha256Hash)\n   public\n   onlyMaintainer\n   payable\n  {\n      // Get release from storage\n      Releases.Release storage release = releases[_version];\n      // Check if release was already approved.\n      if(release.approved){\n        revert(\"Aiakos.deployRelease: Release already approved.\");\n      }\n      // Initialize release if first approval.\n      if(!release.initialized){\n        release.init(_version, _sha256Hash);\n      }\n      // Check if hash matches previously stored hash.\n      else{\n        release.check(_sha256Hash);\n      }\n      // Add approval for the current maintainer.\n      (bool approvalGranted, bool releaseApproved) = release.addApproval(msg.sender, requiredNumberOfMaintainers);\n      if(approvalGranted){\n        // Emit an event to notify a new approval has been granted.\n        emit ApprovalGranted(msg.sender, _version);\n      }\n      if(releaseApproved){\n        // Emit an event to notify a new version has been approved.\n        emit ReleaseApproved(release.version);\n      }\n  }\n\n  /**\n  * @dev Checks the release integrity given the input hash.\n  * @param _version The version of the release to check.\n  * @param _sha256Hash The integrity hash to compare to valid hash.\n  */\n  function checkRelease(string memory _version, bytes32 _sha256Hash)\n   public\n   view\n   returns(bool)\n  {\n      // Revert if invalid hash is provided.\n      if(_sha256Hash == 0x0){\n        revert(\"Aiakos.checkRelease: Invalid input hash.\");\n      }\n      // Get release from storage.\n      Releases.Release storage release = releases[_version];\n      // Revert if release does not exist.\n      if(!release.initialized){\n        revert(\"Aiakos.checkRelease: Release does not exist.\");\n      }\n      // Revert is release not yet approved.\n      if(!release.approved){\n        revert(\"Aiakos.checkRelease: Release not approved.\");\n      }\n      // Compare the input hash to the one stored for the approved release.\n      release.check(_sha256Hash);\n      return true;\n  }\n\n  /**\n  * @dev Gets release informations.\n  * @param _version The version of the release.\n  */\n  function getReleaseInfo(string memory _version)\n   public\n   view\n   returns (string memory, bytes32, bool, bool)\n  {\n      // Get release from storage.\n      Releases.Release storage release = releases[_version];\n      // Revert if release does not exist.\n      if(release.initialized == false){\n        revert(\"Aiakos.getReleaseInfo: Release does not exist.\");\n      }\n      return (release.version, release.sha256Hash, release.initialized, release.approved);\n  }\n\n  /**\n  * @dev Checks if msg.sender is a whitelisted maintainer.\n  */\n  function amIMaintainer()\n   public\n   view\n   returns (bool)\n  {\n      return maintainers.has(msg.sender);\n  }\n\n  /**\n  * @dev Checks if an address belongs to a whitelisted maintainers.\n  * @param _maintainerAddress The maintainer address.\n  */\n  function isMaintainer(address _maintainerAddress)\n   public\n   view\n   returns (bool)\n  {\n      return maintainers.has(_maintainerAddress);\n  }\n\n  /**\n  * @dev Returns the required number of maintainers.\n  */\n  function getRequiredNumberOfMaintainers()\n   public\n   view\n   returns (uint)\n  {\n      return requiredNumberOfMaintainers;\n  }\n\n  /**\n  * @dev Allows the current owner to transfer control of the contract to a newOwner.\n  * @param _newOwner address of the new owner\n  */\n  function transferOwnership(address _newOwner)\n   public\n   nonEmptyAddress(_newOwner)\n   onlyOwner\n  {\n    Ownable.transferOwnership(_newOwner);\n  }\n\n  /**\n  * @dev Throws if address is empty\n  */\n  modifier nonEmptyAddress(address value)\n  {\n    require(value != address(0));\n    _;\n  }\n\n  modifier onlyMaintainer()\n  {\n    require(maintainers.has(msg.sender), \"Aiakos: caller is not a maintainer.\");\n    _;\n  }\n\n}\n",
  "sourcePath": "/Users/abdelhamid/Documents/GitHub/abdelhamid/aiakos-contracts/contracts/Aiakos.sol",
  "compiler": {
    "name": "solc",
    "version": "0.5.8+commit.23d335f2.Emscripten.clang"
  },
  "schemaVersion": "3.0.10",
  "updatedAt": "2019-06-17T08:01:29.884Z",
  "devdoc": {
    "details": "Decentralized Release Management System",
    "methods": {
      "addMaintainer(address)": {
        "details": "Adds a maintainer to the whitelist.Only owner of the contract can call this function.",
        "params": {
          "_maintainerAddress": "The address of the maintainer account to add."
        }
      },
      "amIMaintainer()": {
        "details": "Checks if msg.sender is a whitelisted maintainer."
      },
      "checkRelease(string,bytes32)": {
        "details": "Checks the release integrity given the input hash.",
        "params": {
          "_sha256Hash": "The integrity hash to compare to valid hash.",
          "_version": "The version of the release to check."
        }
      },
      "constructor": {
        "details": "Deploys a new Aiakos contract.",
        "params": {
          "_requiredNumberOfMaintainers": "The required number of maintainers to deploy a release."
        }
      },
      "deployRelease(string,bytes32)": {
        "details": "Deploys a release. A maintainer add its approval for a specific version of the release.If maintainer is the last to approve, the release is approved definitely and a ReleaseApproved event is emitted.Only whitelisted maintainers can call this function.",
        "params": {
          "_sha256Hash": "The integrity hash(SHA256) of the release.",
          "_version": "The version code of the release."
        }
      },
      "getReleaseInfo(string)": {
        "details": "Gets release informations.",
        "params": {
          "_version": "The version of the release."
        }
      },
      "getRequiredNumberOfMaintainers()": {
        "details": "Returns the required number of maintainers."
      },
      "isMaintainer(address)": {
        "details": "Checks if an address belongs to a whitelisted maintainers.",
        "params": {
          "_maintainerAddress": "The maintainer address."
        }
      },
      "isOwner()": {
        "details": "Returns true if the caller is the current owner."
      },
      "owner()": {
        "details": "Returns the address of the current owner."
      },
      "renounceOwnership()": {
        "details": "Leaves the contract without owner. It will not be possible to call `onlyOwner` functions anymore. Can only be called by the current owner.     * > Note: Renouncing ownership will leave the contract without an owner, thereby removing any functionality that is only available to the owner."
      },
      "transferOwnership(address)": {
        "details": "Allows the current owner to transfer control of the contract to a newOwner.",
        "params": {
          "_newOwner": "address of the new owner"
        }
      }
    },
    "title": "Aiakos"
  },
  "userdoc": {
    "methods": {}
  }
}